:0400000075EF00F0A8
:0600080054829EED01F0A0
:100018005480D8CF4DF0E8CF4EF0E0CF4FF09ECFD0
:100028004CF0D8904C324CA01CEF00F01EEF00F0C2
:1000380020EF00F0B7EC03F09EA025EF00F027EFCB
:1000480000F029EF00F09BEC03F0F2CF4CF0D890D1
:100058004C32D8904C324CA034EF00F036EF00F020
:1000680038EF00F0A1EC03F0F0A03DEF00F03FEF17
:1000780000F041EF00F0C5EC03F0F2A046EF00F00D
:1000880048EF00F058EF00F081CF4CF04C3A0F0EDB
:100098004C164CA052EF00F054EF00F058EF00F06F
:1000A800C3EC03F06DEF00F0F2A05DEF00F05FEF3E
:1000B80000F06DEF00F081CF4CF04C3A0F0E4C166B
:1000C8004CB069EF00F06BEF00F06DEF00F0C1ECA1
:1000D80003F04FC0E0FF4EC0E8FF4DC0D8FF54907A
:1000E800100035EF03F03B6E010E3A6E070E3B64CD
:1000F80080EF00F082EF00F07BEF01F0000E3A6E27
:100108009CEF01F03750D8A48CEF00F08EEF00F090
:100118009FEF00F03BC038F0010E396E382A97EF98
:1001280000F0D8903936382E95EF00F03950FF0A94
:1001380089169CEF01F03704D8A4A5EF00F0A7EFCB
:1001480000F082EF00F03BC038F0010E396E382A1B
:10015800B0EF00F0D8903936382EAEEF00F03950B5
:1001680089129CEF01F03750D8A4BDEF00F0BFEF23
:1001780000F0D0EF00F03BC038F0010E396E382A9D
:10018800C8EF00F0D8903936382EC6EF00F0395055
:10019800FF0A8A169CEF01F03704D8A4D6EF00F0C6
:1001A800D8EF00F082EF00F03BC038F0010E396E56
:1001B800382AE1EF00F0D8903936382EDFEF00F01A
:1001C80039508A129CEF01F03750D8A4EEEF00F0B6
:1001D800F0EF00F001EF01F03BC038F0010E396E8E
:1001E800382AF9EF00F0D8903936382EF7EF00F0BA
:1001F8003950FF0A8B169CEF01F03704D8A407EF9B
:1002080001F009EF01F082EF00F03BC038F0010E79
:10021800396E382A12EF01F0D8903936382E10EF9F
:1002280001F039508B129CEF01F03750D8A41FEF22
:1002380001F021EF01F032EF01F03BC038F0010E80
:10024800396E382A2AEF01F0D8903936382E28EF3F
:1002580001F03950FF0A8C169CEF01F03704D8A43E
:1002680038EF01F03AEF01F082EF00F03BC038F0D0
:10027800010E396E382A43EF01F0D8903936382EFE
:1002880041EF01F039508C129CEF01F03750D8A49F
:1002980050EF01F052EF01F063EF01F03BC038F08E
:1002A800010E396E382A5BEF01F0D8903936382EB6
:1002B80059EF01F03950FF0A8D169CEF01F0370411
:1002C800D8A469EF01F06BEF01F082EF00F03BC0BA
:1002D80038F0010E396E382A74EF01F0D8903936AB
:1002E800382E72EF01F039508D129CEF01F0365024
:1002F800386E396A3950000AD8B485EF01F082EFB8
:1003080000F03850410AD8B486EF00F0030AD8B498
:10031800B7EF00F0010AD8B4E8EF00F0070AD8B444
:1003280019EF01F0010AD8B44AEF01F082EF00F0AA
:100338003A5012000600FACF48F0FBCF49F0D9CF67
:100348004AF0DACF4BF09ECF46F0D890463246A01E
:10035800B0EF01F0B2EF01F0B4EF01F0BBEC03F045
:100368009EA0B9EF01F0BBEF01F0BDEF01F0A7ECE3
:1003780003F0F2CF46F0D8904632D890463246A0E5
:10038800C8EF01F0CAEF01F0CCEF01F0ADEC03F0DB
:10039800F2CF46F0D890463246A0D5EF01F0D7EF1D
:1003A80001F0D9EF01F0D5EC03F0F0CF46F0D8908A
:1003B800463246A0E2EF01F0E4EF01F0E6EF01F08B
:1003C800D3EC03F09ECF46F0060E476ED890463227
:1003D800472EEAEF01F046A0F4EF01F0F6EF01F046
:1003E800F8EF01F0D9EC03F0F2A0FDEF01F0FFEF18
:1003F80001F013EF02F081CF46F0050E476ED8905A
:100408004632472E03EF02F046A00DEF02F00FEF41
:1004180002F013EF02F0D1EC03F02CEF02F0F2A09F
:1004280018EF02F01AEF02F02CEF02F081CF46F03D
:10043800050E476ED8904632472E1EEF02F046B0A2
:1004480028EF02F02AEF02F02CEF02F0CFEC03F0D5
:10045800F2A031EF02F033EF02F047EF02F081CF64
:1004680046F0060E476ED8904632472E37EF02F018
:1004780046A041EF02F043EF02F047EF02F0CDEC67
:1004880003F060EF02F0F2A04CEF02F04EEF02F042
:1004980060EF02F081CF46F0060E476ED8904632E4
:1004A800472E52EF02F046B05CEF02F05EEF02F02A
:1004B80060EF02F0CBEC03F0F2A065EF02F067EF1B
:1004C80002F076EF02F0466A81AE01D0462A46A0D5
:1004D80070EF02F072EF02F076EF02F0C9EC03F071
:1004E800B0EF02F0F2A07BEF02F07DEF02F08CEFAC
:1004F80002F0466A81AE01D0462A46B086EF02F085
:1005080088EF02F08CEF02F0C7EC03F0B0EF02F0D6
:100518009DCF46F0463A0F0E461646A096EF02F0DB
:1005280098EF02F09CEF02F0D7EC03F0B0EF02F086
:100538009DCF46F0050E476ED8904632472EA0EF65
:1005480002F046A0AAEF02F0ACEF02F0B0EF02F022
:1005580052EC03F0B0EF02F04BC0DAFF4AC0D9FF0B
:1005680049C0FBFF48C0FAFF54921100054A062A09
:10057800350E366E000E376E6BEC03F0610E3518D3
:10058800D8A4C9EF02F0CBEF02F0FBEF02F0440E63
:100598003C6E000E89EC03F0630E7BEC03F0000E5A
:1005A8003F6E000E3E6E000E416E000E406E404AD9
:1005B800412A41BEE9EF02F0415009E1FB0E405CDF
:1005C800D8A0E9EF02F0EBEF02F0DBEF02F03E4AD1
:1005D8003F2A3FBEF9EF02F03F5009E1FB0E3E5CB7
:1005E800D8A0F9EF02F0FBEF02F0D7EF02F0620EAD
:1005F8003518D8A402EF03F004EF03F034EF03F04A
:10060800440E3C6E000E92EC03F0640E7BEC03F09B
:10061800000E436E000E426E000E456E000E446ED4
:10062800444A452A45BE22EF03F0455009E1FB0E36
:10063800445CD8A022EF03F024EF03F014EF03F09A
:10064800424A432A43BE32EF03F0435009E1FB0E0E
:10065800425CD8A032EF03F034EF03F010EF03F060
:1006680012007E0EF66E070EF76E000EF86E00EEA4
:1006780050F010EE04F00900F5CFEEFFE550E15020
:10068800FAE100EE01F0350EEE6AE806FDE154905D
:100698005492000EF86E0001B3EF03F00F501010E3
:1006A800D8B459EF03F05BEF03F06AEF03F002D818
:1006B80068EF03F00500FA6E0F50FD6E1050FE6EE5
:1006C800F850FF6EFA5012006AEF03F012009EAA6B
:1006D80070EF03F072EF03F07AEF03F036C0D9FF42
:1006E80037C0DAFFAECFDFFF7AEF03F01200366EC5
:1006F800F28EACA282EF03F084EF03F087EF03F0F1
:100708009D9836C0ADFF010E12003D6E3CC036F01C
:10071800010E376E3D5077EC00F012003D6E3CC084
:1007280036F0000E376E3D5077EC00F012009E90C8
:100738000850CF6E07C0CEFF1200F2940A50D76E51
:1007480009C0D6FF12009E900850CF6E07C0CEFF9A
:100758001200F2940A50D76E09C0D6FF1200B3EF08
:1007680003F075EF00F09E9234C0CCFF12009E9209
:1007780034C0CCFF120000127A00F2901200F290FE
:100788001200F0901200F2901200F2901200F29013
:100798001200F2901200F2901200F2901200F09201
:0E07A8001200F29212009D8812009E9C120018
:020000040020DA
:08000000FFFFFFFFFFFFFFFF00
:020000040030CA
:0E000000FF02091EFF8181FF0FC00FE00F40BD
:00000001FF
